{
  "abi": [
    {
      "inputs": [
        {
          "internalType": "string",
          "name": "_name",
          "type": "string"
        },
        {
          "internalType": "string",
          "name": "_symbol",
          "type": "string"
        }
      ],
      "stateMutability": "nonpayable",
      "type": "constructor"
    },
    {
      "anonymous": false,
      "inputs": [
        {
          "indexed": true,
          "internalType": "address",
          "name": "owner",
          "type": "address"
        },
        {
          "indexed": true,
          "internalType": "address",
          "name": "approved",
          "type": "address"
        },
        {
          "indexed": true,
          "internalType": "uint256",
          "name": "tokenId",
          "type": "uint256"
        }
      ],
      "name": "Approval",
      "type": "event"
    },
    {
      "anonymous": false,
      "inputs": [
        {
          "indexed": true,
          "internalType": "address",
          "name": "owner",
          "type": "address"
        },
        {
          "indexed": true,
          "internalType": "address",
          "name": "operator",
          "type": "address"
        },
        {
          "indexed": false,
          "internalType": "bool",
          "name": "approved",
          "type": "bool"
        }
      ],
      "name": "ApprovalForAll",
      "type": "event"
    },
    {
      "anonymous": false,
      "inputs": [
        {
          "indexed": true,
          "internalType": "address",
          "name": "from",
          "type": "address"
        },
        {
          "indexed": true,
          "internalType": "address",
          "name": "to",
          "type": "address"
        },
        {
          "indexed": true,
          "internalType": "uint256",
          "name": "tokenId",
          "type": "uint256"
        }
      ],
      "name": "Transfer",
      "type": "event"
    },
    {
      "inputs": [
        {
          "internalType": "address",
          "name": "to",
          "type": "address"
        },
        {
          "internalType": "uint256",
          "name": "tokenId",
          "type": "uint256"
        }
      ],
      "name": "approve",
      "outputs": [],
      "stateMutability": "nonpayable",
      "type": "function"
    },
    {
      "inputs": [
        {
          "internalType": "address",
          "name": "owner",
          "type": "address"
        }
      ],
      "name": "balanceOf",
      "outputs": [
        {
          "internalType": "uint256",
          "name": "",
          "type": "uint256"
        }
      ],
      "stateMutability": "view",
      "type": "function"
    },
    {
      "inputs": [
        {
          "internalType": "uint256",
          "name": "tokenId",
          "type": "uint256"
        }
      ],
      "name": "getApproved",
      "outputs": [
        {
          "internalType": "address",
          "name": "",
          "type": "address"
        }
      ],
      "stateMutability": "view",
      "type": "function"
    },
    {
      "inputs": [
        {
          "internalType": "address",
          "name": "owner",
          "type": "address"
        },
        {
          "internalType": "address",
          "name": "operator",
          "type": "address"
        }
      ],
      "name": "isApprovedForAll",
      "outputs": [
        {
          "internalType": "bool",
          "name": "",
          "type": "bool"
        }
      ],
      "stateMutability": "view",
      "type": "function"
    },
    {
      "inputs": [
        {
          "internalType": "string",
          "name": "uri",
          "type": "string"
        }
      ],
      "name": "mint",
      "outputs": [
        {
          "internalType": "uint256",
          "name": "",
          "type": "uint256"
        }
      ],
      "stateMutability": "nonpayable",
      "type": "function"
    },
    {
      "inputs": [],
      "name": "name",
      "outputs": [
        {
          "internalType": "string",
          "name": "",
          "type": "string"
        }
      ],
      "stateMutability": "view",
      "type": "function"
    },
    {
      "inputs": [
        {
          "internalType": "uint256",
          "name": "tokenId",
          "type": "uint256"
        }
      ],
      "name": "ownerOf",
      "outputs": [
        {
          "internalType": "address",
          "name": "",
          "type": "address"
        }
      ],
      "stateMutability": "view",
      "type": "function"
    },
    {
      "inputs": [
        {
          "internalType": "address",
          "name": "from",
          "type": "address"
        },
        {
          "internalType": "address",
          "name": "to",
          "type": "address"
        },
        {
          "internalType": "uint256",
          "name": "tokenId",
          "type": "uint256"
        }
      ],
      "name": "safeTransferFrom",
      "outputs": [],
      "stateMutability": "nonpayable",
      "type": "function"
    },
    {
      "inputs": [
        {
          "internalType": "address",
          "name": "from",
          "type": "address"
        },
        {
          "internalType": "address",
          "name": "to",
          "type": "address"
        },
        {
          "internalType": "uint256",
          "name": "tokenId",
          "type": "uint256"
        },
        {
          "internalType": "bytes",
          "name": "data",
          "type": "bytes"
        }
      ],
      "name": "safeTransferFrom",
      "outputs": [],
      "stateMutability": "nonpayable",
      "type": "function"
    },
    {
      "inputs": [
        {
          "internalType": "address",
          "name": "operator",
          "type": "address"
        },
        {
          "internalType": "bool",
          "name": "approved",
          "type": "bool"
        }
      ],
      "name": "setApprovalForAll",
      "outputs": [],
      "stateMutability": "nonpayable",
      "type": "function"
    },
    {
      "inputs": [
        {
          "internalType": "bytes4",
          "name": "interfaceId",
          "type": "bytes4"
        }
      ],
      "name": "supportsInterface",
      "outputs": [
        {
          "internalType": "bool",
          "name": "",
          "type": "bool"
        }
      ],
      "stateMutability": "view",
      "type": "function"
    },
    {
      "inputs": [],
      "name": "symbol",
      "outputs": [
        {
          "internalType": "string",
          "name": "",
          "type": "string"
        }
      ],
      "stateMutability": "view",
      "type": "function"
    },
    {
      "inputs": [],
      "name": "tokenId",
      "outputs": [
        {
          "internalType": "uint256",
          "name": "",
          "type": "uint256"
        }
      ],
      "stateMutability": "view",
      "type": "function"
    },
    {
      "inputs": [
        {
          "internalType": "uint256",
          "name": "tokenId",
          "type": "uint256"
        }
      ],
      "name": "tokenURI",
      "outputs": [
        {
          "internalType": "string",
          "name": "",
          "type": "string"
        }
      ],
      "stateMutability": "view",
      "type": "function"
    },
    {
      "inputs": [
        {
          "internalType": "address",
          "name": "from",
          "type": "address"
        },
        {
          "internalType": "address",
          "name": "to",
          "type": "address"
        },
        {
          "internalType": "uint256",
          "name": "tokenId",
          "type": "uint256"
        }
      ],
      "name": "transferFrom",
      "outputs": [],
      "stateMutability": "nonpayable",
      "type": "function"
    }
  ],
  "bytecode": {
    "object": "0x608060405260016007553480156200001657600080fd5b5060405162001995380380620019958339810160408190526200003991620001e6565b8151829082906200005290600090602085019062000073565b5080516200006890600190602084019062000073565b50505050506200028d565b828054620000819062000250565b90600052602060002090601f016020900481019282620000a55760008555620000f0565b82601f10620000c057805160ff1916838001178555620000f0565b82800160010185558215620000f0579182015b82811115620000f0578251825591602001919060010190620000d3565b50620000fe92915062000102565b5090565b5b80821115620000fe576000815560010162000103565b634e487b7160e01b600052604160045260246000fd5b600082601f8301126200014157600080fd5b81516001600160401b03808211156200015e576200015e62000119565b604051601f8301601f19908116603f0116810190828211818310171562000189576200018962000119565b81604052838152602092508683858801011115620001a657600080fd5b600091505b83821015620001ca5785820183015181830184015290820190620001ab565b83821115620001dc5760008385830101525b9695505050505050565b60008060408385031215620001fa57600080fd5b82516001600160401b03808211156200021257600080fd5b62000220868387016200012f565b935060208501519150808211156200023757600080fd5b5062000246858286016200012f565b9150509250929050565b600181811c908216806200026557607f821691505b602082108114156200028757634e487b7160e01b600052602260045260246000fd5b50919050565b6116f8806200029d6000396000f3fe608060405234801561001057600080fd5b50600436106100f55760003560e01c80636352211e11610097578063b88d4fde11610066578063b88d4fde146101f5578063c87b56dd14610208578063d85d3d271461021b578063e985e9c51461022e57600080fd5b80636352211e146101b457806370a08231146101c757806395d89b41146101da578063a22cb465146101e257600080fd5b8063095ea7b3116100d3578063095ea7b31461016257806317d70f7c1461017757806323b872dd1461018e57806342842e0e146101a157600080fd5b806301ffc9a7146100fa57806306fdde0314610122578063081812fc14610137575b600080fd5b61010d6101083660046111bc565b61026a565b60405190151581526020015b60405180910390f35b61012a6102bc565b6040516101199190611231565b61014a610145366004611244565b61034e565b6040516001600160a01b039091168152602001610119565b610175610170366004611279565b610375565b005b61018060075481565b604051908152602001610119565b61017561019c3660046112a3565b610490565b6101756101af3660046112a3565b6104c1565b61014a6101c2366004611244565b6104dc565b6101806101d53660046112df565b61053c565b61012a6105c2565b6101756101f03660046112fa565b6105d1565b6101756102033660046113c2565b6105e0565b61012a610216366004611244565b610618565b61018061022936600461143e565b610729565b61010d61023c366004611487565b6001600160a01b03918216600090815260056020908152604080832093909416825291909152205460ff1690565b60006001600160e01b031982166380ac58cd60e01b148061029b57506001600160e01b03198216635b5e139f60e01b145b806102b657506301ffc9a760e01b6001600160e01b03198316145b92915050565b6060600080546102cb906114ba565b80601f01602080910402602001604051908101604052809291908181526020018280546102f7906114ba565b80156103445780601f1061031957610100808354040283529160200191610344565b820191906000526020600020905b81548152906001019060200180831161032757829003601f168201915b5050505050905090565b60006103598261075d565b506000908152600460205260409020546001600160a01b031690565b6000610380826104dc565b9050806001600160a01b0316836001600160a01b031614156103f35760405162461bcd60e51b815260206004820152602160248201527f4552433732313a20617070726f76616c20746f2063757272656e74206f776e656044820152603960f91b60648201526084015b60405180910390fd5b336001600160a01b038216148061040f575061040f813361023c565b6104815760405162461bcd60e51b815260206004820152603d60248201527f4552433732313a20617070726f76652063616c6c6572206973206e6f7420746f60448201527f6b656e206f776e6572206f7220617070726f76656420666f7220616c6c00000060648201526084016103ea565b61048b83836107bf565b505050565b61049a338261082d565b6104b65760405162461bcd60e51b81526004016103ea906114f5565b61048b8383836108ab565b61048b838383604051806020016040528060008152506105e0565b6000818152600260205260408120546001600160a01b0316806102b65760405162461bcd60e51b8152602060048201526018602482015277115490cdcc8c4e881a5b9d985b1a59081d1bdad95b88125160421b60448201526064016103ea565b60006001600160a01b0382166105a65760405162461bcd60e51b815260206004820152602960248201527f4552433732313a2061646472657373207a65726f206973206e6f7420612076616044820152683634b21037bbb732b960b91b60648201526084016103ea565b506001600160a01b031660009081526003602052604090205490565b6060600180546102cb906114ba565b6105dc338383610a1c565b5050565b6105ea338361082d565b6106065760405162461bcd60e51b81526004016103ea906114f5565b61061284848484610aeb565b50505050565b60606106238261075d565b6000828152600660205260408120805461063c906114ba565b80601f0160208091040260200160405190810160405280929190818152602001828054610668906114ba565b80156106b55780601f1061068a576101008083540402835291602001916106b5565b820191906000526020600020905b81548152906001019060200180831161069857829003601f168201915b5050505050905060006106d360408051602081019091526000815290565b90508051600014156106e6575092915050565b815115610718578082604051602001610700929190611542565b60405160208183030381529060405292505050919050565b61072184610b1e565b949350505050565b600061073733600754610b92565b61074360075483610bac565b6007805490600061075383611587565b9091555092915050565b6000818152600260205260409020546001600160a01b03166107bc5760405162461bcd60e51b8152602060048201526018602482015277115490cdcc8c4e881a5b9d985b1a59081d1bdad95b88125160421b60448201526064016103ea565b50565b600081815260046020526040902080546001600160a01b0319166001600160a01b03841690811790915581906107f4826104dc565b6001600160a01b03167f8c5be1e5ebec7d5bd14f71427d1e84f3dd0314c0f7b2291e5b200ac8c7c3b92560405160405180910390a45050565b600080610839836104dc565b9050806001600160a01b0316846001600160a01b0316148061088057506001600160a01b0380821660009081526005602090815260408083209388168352929052205460ff165b806107215750836001600160a01b03166108998461034e565b6001600160a01b031614949350505050565b826001600160a01b03166108be826104dc565b6001600160a01b0316146108e45760405162461bcd60e51b81526004016103ea906115a2565b6001600160a01b0382166109465760405162461bcd60e51b8152602060048201526024808201527f4552433732313a207472616e7366657220746f20746865207a65726f206164646044820152637265737360e01b60648201526084016103ea565b6109538383836001610c46565b826001600160a01b0316610966826104dc565b6001600160a01b03161461098c5760405162461bcd60e51b81526004016103ea906115a2565b600081815260046020908152604080832080546001600160a01b03199081169091556001600160a01b0387811680865260038552838620805460001901905590871680865283862080546001019055868652600290945282852080549092168417909155905184937fddf252ad1be2c89b69c2b068fc378daa952ba7f163c4a11628f55a4df523b3ef91a4505050565b816001600160a01b0316836001600160a01b03161415610a7e5760405162461bcd60e51b815260206004820152601960248201527f4552433732313a20617070726f766520746f2063616c6c65720000000000000060448201526064016103ea565b6001600160a01b03838116600081815260056020908152604080832094871680845294825291829020805460ff191686151590811790915591519182527f17307eab39ab6107e8899845ad3d59bd9653f200f220920489ca2b5937696c31910160405180910390a3505050565b610af68484846108ab565b610b0284848484610cce565b6106125760405162461bcd60e51b81526004016103ea906115e7565b6060610b298261075d565b6000610b4060408051602081019091526000815290565b90506000815111610b605760405180602001604052806000815250610b8b565b80610b6a84610dcc565b604051602001610b7b929190611542565b6040516020818303038152906040525b9392505050565b6105dc828260405180602001604052806000815250610e69565b6000828152600260205260409020546001600160a01b0316610c275760405162461bcd60e51b815260206004820152602e60248201527f45524337323155524953746f726167653a2055524920736574206f66206e6f6e60448201526d32bc34b9ba32b73a103a37b5b2b760911b60648201526084016103ea565b6000828152600660209081526040909120825161048b9284019061110d565b6001811115610612576001600160a01b03841615610c8c576001600160a01b03841660009081526003602052604081208054839290610c86908490611639565b90915550505b6001600160a01b03831615610612576001600160a01b03831660009081526003602052604081208054839290610cc3908490611650565b909155505050505050565b60006001600160a01b0384163b15610dc157604051630a85bd0160e11b81526001600160a01b0385169063150b7a0290610d12903390899088908890600401611668565b6020604051808303816000875af1925050508015610d4d575060408051601f3d908101601f19168201909252610d4a918101906116a5565b60015b610da7573d808015610d7b576040519150601f19603f3d011682016040523d82523d6000602084013e610d80565b606091505b508051610d9f5760405162461bcd60e51b81526004016103ea906115e7565b805181602001fd5b6001600160e01b031916630a85bd0160e11b149050610721565b506001949350505050565b60606000610dd983610e9c565b600101905060008167ffffffffffffffff811115610df957610df9611336565b6040519080825280601f01601f191660200182016040528015610e23576020820181803683370190505b5090508181016020015b600019016f181899199a1a9b1b9c1cb0b131b232b360811b600a86061a8153600a8504945084610e5c57610e61565b610e2d565b509392505050565b610e738383610f74565b610e806000848484610cce565b61048b5760405162461bcd60e51b81526004016103ea906115e7565b60008072184f03e93ff9f4daa797ed6e38ed64bf6a1f0160401b8310610edb5772184f03e93ff9f4daa797ed6e38ed64bf6a1f0160401b830492506040015b6d04ee2d6d415b85acef81000000008310610f07576d04ee2d6d415b85acef8100000000830492506020015b662386f26fc100008310610f2557662386f26fc10000830492506010015b6305f5e1008310610f3d576305f5e100830492506008015b6127108310610f5157612710830492506004015b60648310610f63576064830492506002015b600a83106102b65760010192915050565b6001600160a01b038216610fca5760405162461bcd60e51b815260206004820181905260248201527f4552433732313a206d696e7420746f20746865207a65726f206164647265737360448201526064016103ea565b6000818152600260205260409020546001600160a01b03161561102f5760405162461bcd60e51b815260206004820152601c60248201527f4552433732313a20746f6b656e20616c7265616479206d696e7465640000000060448201526064016103ea565b61103d600083836001610c46565b6000818152600260205260409020546001600160a01b0316156110a25760405162461bcd60e51b815260206004820152601c60248201527f4552433732313a20746f6b656e20616c7265616479206d696e7465640000000060448201526064016103ea565b6001600160a01b038216600081815260036020908152604080832080546001019055848352600290915280822080546001600160a01b0319168417905551839291907fddf252ad1be2c89b69c2b068fc378daa952ba7f163c4a11628f55a4df523b3ef908290a45050565b828054611119906114ba565b90600052602060002090601f01602090048101928261113b5760008555611181565b82601f1061115457805160ff1916838001178555611181565b82800160010185558215611181579182015b82811115611181578251825591602001919060010190611166565b5061118d929150611191565b5090565b5b8082111561118d5760008155600101611192565b6001600160e01b0319811681146107bc57600080fd5b6000602082840312156111ce57600080fd5b8135610b8b816111a6565b60005b838110156111f45781810151838201526020016111dc565b838111156106125750506000910152565b6000815180845261121d8160208601602086016111d9565b601f01601f19169290920160200192915050565b602081526000610b8b6020830184611205565b60006020828403121561125657600080fd5b5035919050565b80356001600160a01b038116811461127457600080fd5b919050565b6000806040838503121561128c57600080fd5b6112958361125d565b946020939093013593505050565b6000806000606084860312156112b857600080fd5b6112c18461125d565b92506112cf6020850161125d565b9150604084013590509250925092565b6000602082840312156112f157600080fd5b610b8b8261125d565b6000806040838503121561130d57600080fd5b6113168361125d565b91506020830135801515811461132b57600080fd5b809150509250929050565b634e487b7160e01b600052604160045260246000fd5b600067ffffffffffffffff8084111561136757611367611336565b604051601f8501601f19908116603f0116810190828211818310171561138f5761138f611336565b816040528093508581528686860111156113a857600080fd5b858560208301376000602087830101525050509392505050565b600080600080608085870312156113d857600080fd5b6113e18561125d565b93506113ef6020860161125d565b925060408501359150606085013567ffffffffffffffff81111561141257600080fd5b8501601f8101871361142357600080fd5b6114328782356020840161134c565b91505092959194509250565b60006020828403121561145057600080fd5b813567ffffffffffffffff81111561146757600080fd5b8201601f8101841361147857600080fd5b6107218482356020840161134c565b6000806040838503121561149a57600080fd5b6114a38361125d565b91506114b16020840161125d565b90509250929050565b600181811c908216806114ce57607f821691505b602082108114156114ef57634e487b7160e01b600052602260045260246000fd5b50919050565b6020808252602d908201527f4552433732313a2063616c6c6572206973206e6f7420746f6b656e206f776e6560408201526c1c881bdc88185c1c1c9bdd9959609a1b606082015260800190565b600083516115548184602088016111d9565b8351908301906115688183602088016111d9565b01949350505050565b634e487b7160e01b600052601160045260246000fd5b600060001982141561159b5761159b611571565b5060010190565b60208082526025908201527f4552433732313a207472616e736665722066726f6d20696e636f72726563742060408201526437bbb732b960d91b606082015260800190565b60208082526032908201527f4552433732313a207472616e7366657220746f206e6f6e20455243373231526560408201527131b2b4bb32b91034b6b83632b6b2b73a32b960711b606082015260800190565b60008282101561164b5761164b611571565b500390565b6000821982111561166357611663611571565b500190565b6001600160a01b038581168252841660208201526040810183905260806060820181905260009061169b90830184611205565b9695505050505050565b6000602082840312156116b757600080fd5b8151610b8b816111a656fea2646970667358221220438fd4a0f0b43a6a0b0c43407f0b144898617486e03f191cea4bb4eb4967126f64736f6c634300080a0033",
    "linkReferences": {}
  }
}